{
  "_format": "hh-sol-artifact-1",
  "contractName": "SPACEBUSDLPBondDepository",
  "sourceName": "contracts/bonds/SPACEBUSDLPBondDepository.sol",
  "abi": [
    {
      "inputs": [
        {
          "internalType": "address",
          "name": "_SPACE",
          "type": "address"
        },
        {
          "internalType": "address",
          "name": "_principle",
          "type": "address"
        },
        {
          "internalType": "address",
          "name": "_treasury",
          "type": "address"
        },
        {
          "internalType": "address",
          "name": "_DAO",
          "type": "address"
        },
        {
          "internalType": "address",
          "name": "_bondCalculator",
          "type": "address"
        }
      ],
      "stateMutability": "nonpayable",
      "type": "constructor"
    },
    {
      "anonymous": false,
      "inputs": [
        {
          "indexed": false,
          "internalType": "uint256",
          "name": "deposit",
          "type": "uint256"
        },
        {
          "indexed": true,
          "internalType": "uint256",
          "name": "payout",
          "type": "uint256"
        },
        {
          "indexed": true,
          "internalType": "uint256",
          "name": "expires",
          "type": "uint256"
        },
        {
          "indexed": true,
          "internalType": "uint256",
          "name": "priceInUSD",
          "type": "uint256"
        }
      ],
      "name": "BondCreated",
      "type": "event"
    },
    {
      "anonymous": false,
      "inputs": [
        {
          "indexed": true,
          "internalType": "uint256",
          "name": "priceInUSD",
          "type": "uint256"
        },
        {
          "indexed": true,
          "internalType": "uint256",
          "name": "internalPrice",
          "type": "uint256"
        },
        {
          "indexed": true,
          "internalType": "uint256",
          "name": "debtRatio",
          "type": "uint256"
        }
      ],
      "name": "BondPriceChanged",
      "type": "event"
    },
    {
      "anonymous": false,
      "inputs": [
        {
          "indexed": true,
          "internalType": "address",
          "name": "recipient",
          "type": "address"
        },
        {
          "indexed": false,
          "internalType": "uint256",
          "name": "payout",
          "type": "uint256"
        },
        {
          "indexed": false,
          "internalType": "uint256",
          "name": "remaining",
          "type": "uint256"
        }
      ],
      "name": "BondRedeemed",
      "type": "event"
    },
    {
      "anonymous": false,
      "inputs": [
        {
          "indexed": false,
          "internalType": "uint256",
          "name": "initialBCV",
          "type": "uint256"
        },
        {
          "indexed": false,
          "internalType": "uint256",
          "name": "newBCV",
          "type": "uint256"
        },
        {
          "indexed": false,
          "internalType": "uint256",
          "name": "adjustment",
          "type": "uint256"
        },
        {
          "indexed": false,
          "internalType": "bool",
          "name": "addition",
          "type": "bool"
        }
      ],
      "name": "ControlVariableAdjustment",
      "type": "event"
    },
    {
      "anonymous": false,
      "inputs": [
        {
          "indexed": true,
          "internalType": "address",
          "name": "previousOwner",
          "type": "address"
        },
        {
          "indexed": true,
          "internalType": "address",
          "name": "newOwner",
          "type": "address"
        }
      ],
      "name": "OwnershipPulled",
      "type": "event"
    },
    {
      "anonymous": false,
      "inputs": [
        {
          "indexed": true,
          "internalType": "address",
          "name": "previousOwner",
          "type": "address"
        },
        {
          "indexed": true,
          "internalType": "address",
          "name": "newOwner",
          "type": "address"
        }
      ],
      "name": "OwnershipPushed",
      "type": "event"
    },
    {
      "inputs": [],
      "name": "DAO",
      "outputs": [
        {
          "internalType": "address",
          "name": "",
          "type": "address"
        }
      ],
      "stateMutability": "view",
      "type": "function"
    },
    {
      "inputs": [],
      "name": "SPACE",
      "outputs": [
        {
          "internalType": "address",
          "name": "",
          "type": "address"
        }
      ],
      "stateMutability": "view",
      "type": "function"
    },
    {
      "inputs": [],
      "name": "adjustment",
      "outputs": [
        {
          "internalType": "bool",
          "name": "add",
          "type": "bool"
        },
        {
          "internalType": "uint256",
          "name": "rate",
          "type": "uint256"
        },
        {
          "internalType": "uint256",
          "name": "target",
          "type": "uint256"
        },
        {
          "internalType": "uint256",
          "name": "buffer",
          "type": "uint256"
        },
        {
          "internalType": "uint256",
          "name": "lastBlock",
          "type": "uint256"
        }
      ],
      "stateMutability": "view",
      "type": "function"
    },
    {
      "inputs": [],
      "name": "bondCalculator",
      "outputs": [
        {
          "internalType": "address",
          "name": "",
          "type": "address"
        }
      ],
      "stateMutability": "view",
      "type": "function"
    },
    {
      "inputs": [
        {
          "internalType": "address",
          "name": "",
          "type": "address"
        }
      ],
      "name": "bondInfo",
      "outputs": [
        {
          "internalType": "uint256",
          "name": "payout",
          "type": "uint256"
        },
        {
          "internalType": "uint256",
          "name": "vesting",
          "type": "uint256"
        },
        {
          "internalType": "uint256",
          "name": "lastBlock",
          "type": "uint256"
        },
        {
          "internalType": "uint256",
          "name": "pricePaid",
          "type": "uint256"
        }
      ],
      "stateMutability": "view",
      "type": "function"
    },
    {
      "inputs": [],
      "name": "bondPrice",
      "outputs": [
        {
          "internalType": "uint256",
          "name": "price_",
          "type": "uint256"
        }
      ],
      "stateMutability": "view",
      "type": "function"
    },
    {
      "inputs": [],
      "name": "bondPriceInUSD",
      "outputs": [
        {
          "internalType": "uint256",
          "name": "price_",
          "type": "uint256"
        }
      ],
      "stateMutability": "view",
      "type": "function"
    },
    {
      "inputs": [],
      "name": "currentDebt",
      "outputs": [
        {
          "internalType": "uint256",
          "name": "",
          "type": "uint256"
        }
      ],
      "stateMutability": "view",
      "type": "function"
    },
    {
      "inputs": [],
      "name": "debtDecay",
      "outputs": [
        {
          "internalType": "uint256",
          "name": "decay_",
          "type": "uint256"
        }
      ],
      "stateMutability": "view",
      "type": "function"
    },
    {
      "inputs": [],
      "name": "debtRatio",
      "outputs": [
        {
          "internalType": "uint256",
          "name": "debtRatio_",
          "type": "uint256"
        }
      ],
      "stateMutability": "view",
      "type": "function"
    },
    {
      "inputs": [
        {
          "internalType": "uint256",
          "name": "_amount",
          "type": "uint256"
        },
        {
          "internalType": "uint256",
          "name": "_maxPrice",
          "type": "uint256"
        },
        {
          "internalType": "address",
          "name": "_depositor",
          "type": "address"
        }
      ],
      "name": "deposit",
      "outputs": [
        {
          "internalType": "uint256",
          "name": "",
          "type": "uint256"
        }
      ],
      "stateMutability": "nonpayable",
      "type": "function"
    },
    {
      "inputs": [
        {
          "internalType": "uint256",
          "name": "_controlVariable",
          "type": "uint256"
        },
        {
          "internalType": "uint256",
          "name": "_vestingTerm",
          "type": "uint256"
        },
        {
          "internalType": "uint256",
          "name": "_minimumPrice",
          "type": "uint256"
        },
        {
          "internalType": "uint256",
          "name": "_maxPayout",
          "type": "uint256"
        },
        {
          "internalType": "uint256",
          "name": "_fee",
          "type": "uint256"
        },
        {
          "internalType": "uint256",
          "name": "_maxDebt",
          "type": "uint256"
        },
        {
          "internalType": "uint256",
          "name": "_initialDebt",
          "type": "uint256"
        }
      ],
      "name": "initializeBondTerms",
      "outputs": [],
      "stateMutability": "nonpayable",
      "type": "function"
    },
    {
      "inputs": [],
      "name": "isLiquidityBond",
      "outputs": [
        {
          "internalType": "bool",
          "name": "",
          "type": "bool"
        }
      ],
      "stateMutability": "view",
      "type": "function"
    },
    {
      "inputs": [],
      "name": "lastDecay",
      "outputs": [
        {
          "internalType": "uint256",
          "name": "",
          "type": "uint256"
        }
      ],
      "stateMutability": "view",
      "type": "function"
    },
    {
      "inputs": [],
      "name": "maxPayout",
      "outputs": [
        {
          "internalType": "uint256",
          "name": "",
          "type": "uint256"
        }
      ],
      "stateMutability": "view",
      "type": "function"
    },
    {
      "inputs": [
        {
          "internalType": "uint256",
          "name": "_value",
          "type": "uint256"
        }
      ],
      "name": "payoutFor",
      "outputs": [
        {
          "internalType": "uint256",
          "name": "",
          "type": "uint256"
        }
      ],
      "stateMutability": "view",
      "type": "function"
    },
    {
      "inputs": [
        {
          "internalType": "address",
          "name": "_depositor",
          "type": "address"
        }
      ],
      "name": "pendingPayoutFor",
      "outputs": [
        {
          "internalType": "uint256",
          "name": "pendingPayout_",
          "type": "uint256"
        }
      ],
      "stateMutability": "view",
      "type": "function"
    },
    {
      "inputs": [
        {
          "internalType": "address",
          "name": "_depositor",
          "type": "address"
        }
      ],
      "name": "percentVestedFor",
      "outputs": [
        {
          "internalType": "uint256",
          "name": "percentVested_",
          "type": "uint256"
        }
      ],
      "stateMutability": "view",
      "type": "function"
    },
    {
      "inputs": [],
      "name": "policy",
      "outputs": [
        {
          "internalType": "address",
          "name": "",
          "type": "address"
        }
      ],
      "stateMutability": "view",
      "type": "function"
    },
    {
      "inputs": [],
      "name": "principle",
      "outputs": [
        {
          "internalType": "address",
          "name": "",
          "type": "address"
        }
      ],
      "stateMutability": "view",
      "type": "function"
    },
    {
      "inputs": [],
      "name": "pullManagement",
      "outputs": [],
      "stateMutability": "nonpayable",
      "type": "function"
    },
    {
      "inputs": [
        {
          "internalType": "address",
          "name": "newOwner_",
          "type": "address"
        }
      ],
      "name": "pushManagement",
      "outputs": [],
      "stateMutability": "nonpayable",
      "type": "function"
    },
    {
      "inputs": [
        {
          "internalType": "address",
          "name": "_token",
          "type": "address"
        }
      ],
      "name": "recoverLostToken",
      "outputs": [
        {
          "internalType": "bool",
          "name": "",
          "type": "bool"
        }
      ],
      "stateMutability": "nonpayable",
      "type": "function"
    },
    {
      "inputs": [
        {
          "internalType": "address",
          "name": "_recipient",
          "type": "address"
        },
        {
          "internalType": "bool",
          "name": "_stake",
          "type": "bool"
        }
      ],
      "name": "redeem",
      "outputs": [
        {
          "internalType": "uint256",
          "name": "",
          "type": "uint256"
        }
      ],
      "stateMutability": "nonpayable",
      "type": "function"
    },
    {
      "inputs": [],
      "name": "renounceManagement",
      "outputs": [],
      "stateMutability": "nonpayable",
      "type": "function"
    },
    {
      "inputs": [
        {
          "internalType": "bool",
          "name": "_addition",
          "type": "bool"
        },
        {
          "internalType": "uint256",
          "name": "_increment",
          "type": "uint256"
        },
        {
          "internalType": "uint256",
          "name": "_target",
          "type": "uint256"
        },
        {
          "internalType": "uint256",
          "name": "_buffer",
          "type": "uint256"
        }
      ],
      "name": "setAdjustment",
      "outputs": [],
      "stateMutability": "nonpayable",
      "type": "function"
    },
    {
      "inputs": [
        {
          "internalType": "enum SpaceBondDepository.PARAMETER",
          "name": "_parameter",
          "type": "uint8"
        },
        {
          "internalType": "uint256",
          "name": "_input",
          "type": "uint256"
        }
      ],
      "name": "setBondTerms",
      "outputs": [],
      "stateMutability": "nonpayable",
      "type": "function"
    },
    {
      "inputs": [
        {
          "internalType": "address",
          "name": "_staking",
          "type": "address"
        },
        {
          "internalType": "bool",
          "name": "_helper",
          "type": "bool"
        }
      ],
      "name": "setStaking",
      "outputs": [],
      "stateMutability": "nonpayable",
      "type": "function"
    },
    {
      "inputs": [
        {
          "internalType": "uint256",
          "name": "_newDebt",
          "type": "uint256"
        }
      ],
      "name": "setTotalDebt",
      "outputs": [],
      "stateMutability": "nonpayable",
      "type": "function"
    },
    {
      "inputs": [],
      "name": "staking",
      "outputs": [
        {
          "internalType": "address",
          "name": "",
          "type": "address"
        }
      ],
      "stateMutability": "view",
      "type": "function"
    },
    {
      "inputs": [],
      "name": "stakingHelper",
      "outputs": [
        {
          "internalType": "address",
          "name": "",
          "type": "address"
        }
      ],
      "stateMutability": "view",
      "type": "function"
    },
    {
      "inputs": [],
      "name": "standardizedDebtRatio",
      "outputs": [
        {
          "internalType": "uint256",
          "name": "",
          "type": "uint256"
        }
      ],
      "stateMutability": "view",
      "type": "function"
    },
    {
      "inputs": [],
      "name": "terms",
      "outputs": [
        {
          "internalType": "uint256",
          "name": "controlVariable",
          "type": "uint256"
        },
        {
          "internalType": "uint256",
          "name": "vestingTerm",
          "type": "uint256"
        },
        {
          "internalType": "uint256",
          "name": "minimumPrice",
          "type": "uint256"
        },
        {
          "internalType": "uint256",
          "name": "maxPayout",
          "type": "uint256"
        },
        {
          "internalType": "uint256",
          "name": "fee",
          "type": "uint256"
        },
        {
          "internalType": "uint256",
          "name": "maxDebt",
          "type": "uint256"
        }
      ],
      "stateMutability": "view",
      "type": "function"
    },
    {
      "inputs": [],
      "name": "totalDebt",
      "outputs": [
        {
          "internalType": "uint256",
          "name": "",
          "type": "uint256"
        }
      ],
      "stateMutability": "view",
      "type": "function"
    },
    {
      "inputs": [],
      "name": "treasury",
      "outputs": [
        {
          "internalType": "address",
          "name": "",
          "type": "address"
        }
      ],
      "stateMutability": "view",
      "type": "function"
    },
    {
      "inputs": [],
      "name": "useHelper",
      "outputs": [
        {
          "internalType": "bool",
          "name": "",
          "type": "bool"
        }
      ],
      "stateMutability": "view",
      "type": "function"
    }
  ],
  "bytecode": "0x6101406040523480156200001257600080fd5b5060405162002cc238038062002cc2833981810160405260a08110156200003857600080fd5b50805160208201516040808401516060850151608090950151600080546001600160a01b03191633178082559351959694959294939192879287928792879287926001600160a01b0391909116917fea8258f2d9ddb679928cf34b78cf645b7feda9acc828e4dd82d014eaae270eba908290a36001600160a01b038516620000bf57600080fd5b6001600160601b0319606086901b166080526001600160a01b038416620000e557600080fd5b6001600160601b0319606085901b1660a0526001600160a01b0383166200010b57600080fd5b6001600160601b0319606084901b1660c0526001600160a01b0382166200013157600080fd5b6001600160601b0319606092831b811660e0529181901b909116610120526001600160a01b0316151560f81b61010052505050505050505060805160601c60a05160601c60c05160601c60e05160601c6101005160f81c6101205160601c612a856200023d60003980610fa45280611729528061194c525080610f7652806116f85280611b7d52508061159e52806117f25280611899525080610e0c528061120d528061141052806114f25250806105c35280610fd3528061107a528061123c52806113b752806113e152806114c152806117585280611857525080610c9d528061157c5280611818528061199a5280611bf25280611d775280611e5c5280611f715250612a856000f3fe608060405234801561001057600080fd5b506004361061021c5760003560e01c80637927ebf811610125578063cf5a4260116100ad578063d7ccfb0b1161007c578063d7ccfb0b14610599578063e0176de8146105a1578063e392a262146105a9578063f5c2ab5b146105b1578063fc7b9c18146105b95761021c565b8063cf5a42601461050b578063d4d863ce14610528578063d502562514610556578063d7969060146105915761021c565b806398fabd3a116100f457806398fabd3a14610481578063b4abccba14610489578063c5332b7c146104af578063cd1234b3146104b7578063cea55f57146105035761021c565b80637927ebf814610422578063844b5c7c1461043f5780638dbdbe6d14610447578063904b3ece146104795761021c565b806346f68ee9116101a85780635a96ac0a116101775780635a96ac0a146103c157806361d027b3146103c957806371535008146103d1578063759076e51461041257806377b818951461041a5761021c565b806346f68ee9146103655780634c61f96b1461038b5780634cf088d914610393578063507930ec1461039b5761021c565b80631a3d0068116101ef5780631a3d00681461028f5780631e321a0f146102c05780631feed31f146102e65780632f3f470a14610314578063451ee4a1146103305761021c565b8063016a42841461022157806301b88ee8146102455780630505c8c91461027d578063089208d814610285575b600080fd5b6102296105c1565b604080516001600160a01b039092168252519081900360200190f35b61026b6004803603602081101561025b57600080fd5b50356001600160a01b03166105e5565b60408051918252519081900360200190f35b61022961063e565b61028d61064e565b005b61028d600480360360808110156102a557600080fd5b508035151590602081013590604081013590606001356106e5565b61028d600480360360408110156102d657600080fd5b5060ff81351690602001356107dd565b61026b600480360360408110156102fc57600080fd5b506001600160a01b0381351690602001351515610991565b61031c610b86565b604080519115158252519081900360200190f35b610338610b96565b60408051951515865260208601949094528484019290925260608401526080830152519081900360a00190f35b61028d6004803603602081101561037b57600080fd5b50356001600160a01b0316610bae565b610229610c9b565b610229610cbf565b61026b600480360360208110156103b157600080fd5b50356001600160a01b0316610cce565b61028d610d60565b610229610e0a565b61028d600480360360e08110156103e757600080fd5b5080359060208101359060408101359060608101359060808101359060a08101359060c00135610e2e565b61026b610f22565b610229610f3d565b61026b6004803603602081101561043857600080fd5b5035610f4c565b61026b610f72565b61026b6004803603606081101561045d57600080fd5b50803590602081013590604001356001600160a01b031661110b565b61026b6116f4565b6102296117f0565b61031c6004803603602081101561049f57600080fd5b50356001600160a01b0316611814565b61022961194a565b6104dd600480360360208110156104cd57600080fd5b50356001600160a01b031661196e565b604080519485526020850193909352838301919091526060830152519081900360800190f35b61026b611995565b61028d6004803603602081101561052157600080fd5b5035611a4d565b61028d6004803603604081101561053e57600080fd5b506001600160a01b0381351690602001351515611aa3565b61055e611b66565b604080519687526020870195909552858501939093526060850191909152608084015260a0830152519081900360c00190f35b61031c611b7b565b61026b611b9f565b61026b611bde565b61026b611c7b565b61026b611cc0565b61026b611cc6565b7f000000000000000000000000000000000000000000000000000000000000000081565b6000806105f183610cce565b6001600160a01b0384166000908152600f6020526040902054909150612710821061061e57809250610637565b61063461271061062e8385611ccc565b90611d2c565b92505b5050919050565b6000546001600160a01b03165b90565b6000546001600160a01b0316331461069b576040805162461bcd60e51b815260206004820181905260248201526000805160206129bf833981519152604482015290519081900360640190fd5b600080546040516001600160a01b03909116907fea8258f2d9ddb679928cf34b78cf645b7feda9acc828e4dd82d014eaae270eba908390a3600080546001600160a01b0319169055565b6000546001600160a01b03163314610732576040805162461bcd60e51b815260206004820181905260248201526000805160206129bf833981519152604482015290519081900360640190fd5b600454610748906103e89061062e906019611ccc565b831115610792576040805162461bcd60e51b8152602060048201526013602482015272496e6372656d656e7420746f6f206c6172676560681b604482015290519081900360640190fd5b6040805160a0810182529415158086526020860185905290850183905260608501829052436080909501859052600a805460ff19169091179055600b92909255600c55600d55600e55565b6000546001600160a01b0316331461082a576040805162461bcd60e51b815260206004820181905260248201526000805160206129bf833981519152604482015290519081900360640190fd5b600082600381111561083857fe5b14156108895761271081101561087f5760405162461bcd60e51b8152600401808060200182810382526024815260200180612a026024913960400191505060405180910390fd5b600581905561098d565b600182600381111561089757fe5b14156108fe576103e88111156108f4576040805162461bcd60e51b815260206004820181905260248201527f5061796f75742063616e6e6f742062652061626f766520312070657263656e74604482015290519081900360640190fd5b600781905561098d565b600282600381111561090c57fe5b141561097357612710811115610969576040805162461bcd60e51b815260206004820152601c60248201527f44414f206665652063616e6e6f7420657863656564207061796f757400000000604482015290519081900360640190fd5b600881905561098d565b600382600381111561098157fe5b141561098d5760098190555b5050565b600061099b6128f5565b506001600160a01b0383166000908152600f60209081526040808320815160808101835281548152600182015493810193909352600281015491830191909152600301546060820152906109ee85610cce565b90506127108110610a7e576001600160a01b0385166000818152600f602090815260408083208381556001810184905560028101849055600301839055855181519081529182019290925281517f51c99f515c87b0d95ba97f616edd182e8f161c4932eac17c6fefe9dab58b77b1929181900390910190a2610a7585858460000151611d6e565b92505050610b80565b8151600090610a95906127109061062e9085611ccc565b90506040518060800160405280610ab983866000015161207290919063ffffffff16565b8152602001610ae3610ad886604001514361207290919063ffffffff16565b602087015190612072565b8152436020808301919091526060808701516040938401526001600160a01b038a166000818152600f84528490208551808255868501516001830155868601516002830155959092015160039092019190915582518581529182019390935281517f51c99f515c87b0d95ba97f616edd182e8f161c4932eac17c6fefe9dab58b77b1929181900390910190a2610b7a868683611d6e565b93505050505b92915050565b600354600160a01b900460ff1681565b600a54600b54600c54600d54600e5460ff9094169385565b6000546001600160a01b03163314610bfb576040805162461bcd60e51b815260206004820181905260248201526000805160206129bf833981519152604482015290519081900360640190fd5b6001600160a01b038116610c405760405162461bcd60e51b81526004018080602001828103825260268152602001806129306026913960400191505060405180910390fd5b600080546040516001600160a01b03808516939216917fea8258f2d9ddb679928cf34b78cf645b7feda9acc828e4dd82d014eaae270eba91a3600180546001600160a01b0319166001600160a01b0392909216919091179055565b7f000000000000000000000000000000000000000000000000000000000000000081565b6002546001600160a01b031681565b6000610cd86128f5565b506001600160a01b0382166000908152600f602090815260408083208151608081018352815481526001820154938101939093526002810154918301829052600301546060830152909190610d2e904390612072565b60208301519091508015610d5357610d4c8161062e84612710611ccc565b9350610d58565b600093505b505050919050565b6001546001600160a01b03163314610da95760405162461bcd60e51b81526004018080602001828103825260228152602001806129566022913960400191505060405180910390fd5b600154600080546040516001600160a01b0393841693909116917faa151555690c956fc3ea32f106bb9f119b5237a061eaa8557cff3e51e3792c8d91a3600154600080546001600160a01b0319166001600160a01b03909216919091179055565b7f000000000000000000000000000000000000000000000000000000000000000081565b6000546001600160a01b03163314610e7b576040805162461bcd60e51b815260206004820181905260248201526000805160206129bf833981519152604482015290519081900360640190fd5b60045415610ed0576040805162461bcd60e51b815260206004820181905260248201527f426f6e6473206d75737420626520696e697469616c697a65642066726f6d2030604482015290519081900360640190fd5b6040805160c08101825288815260208101889052908101869052606081018590526080810184905260a00182905260049690965560059490945560069290925560075560085560095560105543601155565b6000610f38610f2f611c7b565b60105490612072565b905090565b6003546001600160a01b031681565b6000610b80662386f26fc1000061062e610f6d85610f68611b9f565b6120b4565b61222b565b60007f00000000000000000000000000000000000000000000000000000000000000001561107057611069606461062e7f00000000000000000000000000000000000000000000000000000000000000006001600160a01b03166332da80a37f00000000000000000000000000000000000000000000000000000000000000006040518263ffffffff1660e01b815260040180826001600160a01b0316815260200191505060206040518083038186803b15801561102f57600080fd5b505afa158015611043573d6000803e3d6000fd5b505050506040513d602081101561105957600080fd5b5051611063611b9f565b90611ccc565b905061064b565b610f38606461062e7f00000000000000000000000000000000000000000000000000000000000000006001600160a01b031663313ce5676040518163ffffffff1660e01b815260040160206040518083038186803b1580156110d157600080fd5b505afa1580156110e5573d6000803e3d6000fd5b505050506040513d60208110156110fb57600080fd5b505160ff16600a0a611063611b9f565b60006001600160a01b03821661115a576040805162461bcd60e51b815260206004820152600f60248201526e496e76616c6964206164647265737360881b604482015290519081900360640190fd5b611162612243565b60095460105411156111b2576040805162461bcd60e51b815260206004820152601460248201527313585e0818d85c1858da5d1e481c995858da195960621b604482015290519081900360640190fd5b60006111bc610f72565b905060006111c861224e565b9050808510156112095760405162461bcd60e51b81526004018080602001828103825260238152602001806129df6023913960400191505060405180910390fd5b60007f00000000000000000000000000000000000000000000000000000000000000006001600160a01b0316631eec5a9a7f0000000000000000000000000000000000000000000000000000000000000000896040518363ffffffff1660e01b815260040180836001600160a01b031681526020018281526020019250505060206040518083038186803b1580156112a057600080fd5b505afa1580156112b4573d6000803e3d6000fd5b505050506040513d60208110156112ca57600080fd5b5051905060006112d982610f4c565b905062989680811015611324576040805162461bcd60e51b815260206004820152600e60248201526d109bdb99081d1bdbc81cdb585b1b60921b604482015290519081900360640190fd5b61132c611bde565b811115611371576040805162461bcd60e51b815260206004820152600e60248201526d426f6e6420746f6f206c6172676560901b604482015290519081900360640190fd5b600061139061271061062e600480015485611ccc90919063ffffffff16565b905060006113a8826113a28686612072565b90612072565b90506113df6001600160a01b037f00000000000000000000000000000000000000000000000000000000000000001633308d612290565b7f00000000000000000000000000000000000000000000000000000000000000006001600160a01b031663095ea7b37f00000000000000000000000000000000000000000000000000000000000000008c6040518363ffffffff1660e01b815260040180836001600160a01b0316815260200182815260200192505050602060405180830381600087803b15801561147657600080fd5b505af115801561148a573d6000803e3d6000fd5b505050506040513d60208110156114a057600080fd5b50506040805163bc157ac160e01b8152600481018c90526001600160a01b037f0000000000000000000000000000000000000000000000000000000000000000811660248301526044820184905291517f00000000000000000000000000000000000000000000000000000000000000009092169163bc157ac1916064808201926020929091908290030181600087803b15801561153d57600080fd5b505af1158015611551573d6000803e3d6000fd5b505050506040513d602081101561156757600080fd5b505081156115c3576115c36001600160a01b037f0000000000000000000000000000000000000000000000000000000000000000167f0000000000000000000000000000000000000000000000000000000000000000846122f0565b6010546115d09085612347565b601055604080516080810182526001600160a01b038a166000908152600f602052919091205481906116029086612347565b81526005805460208084019190915243604080850182905260609485018c90526001600160a01b038e166000908152600f8452819020865181559286015160018401558501516002830155939092015160039092019190915554879161166791612347565b604080518d8152905186917f1fec6dc81f140574bf43f6b1e420ae1dd47928b9d57db8cbd7b8611063b85ae5919081900360200190a46116a5611995565b6116ad61224e565b6116b5610f72565b6040517f375b221f40939bfd8f49723a17cf7bc6d576ebf72efe2cc3e991826f5b3f390a90600090a46116e66123a1565b509098975050505050505050565b60007f0000000000000000000000000000000000000000000000000000000000000000156117e857611069633b9aca0061062e7f00000000000000000000000000000000000000000000000000000000000000006001600160a01b03166332da80a37f00000000000000000000000000000000000000000000000000000000000000006040518263ffffffff1660e01b815260040180826001600160a01b0316815260200191505060206040518083038186803b1580156117b457600080fd5b505afa1580156117c8573d6000803e3d6000fd5b505050506040513d60208110156117de57600080fd5b5051611063611995565b611069611995565b7f000000000000000000000000000000000000000000000000000000000000000081565b60007f00000000000000000000000000000000000000000000000000000000000000006001600160a01b0316826001600160a01b0316141561185557600080fd5b7f00000000000000000000000000000000000000000000000000000000000000006001600160a01b0316826001600160a01b0316141561189457600080fd5b6119427f0000000000000000000000000000000000000000000000000000000000000000836001600160a01b03166370a08231306040518263ffffffff1660e01b815260040180826001600160a01b0316815260200191505060206040518083038186803b15801561190557600080fd5b505afa158015611919573d6000803e3d6000fd5b505050506040513d602081101561192f57600080fd5b50516001600160a01b03851691906122f0565b506001919050565b7f000000000000000000000000000000000000000000000000000000000000000081565b600f6020526000908152604090208054600182015460028301546003909301549192909184565b6000807f00000000000000000000000000000000000000000000000000000000000000006001600160a01b03166318160ddd6040518163ffffffff1660e01b815260040160206040518083038186803b1580156119f157600080fd5b505afa158015611a05573d6000803e3d6000fd5b505050506040513d6020811015611a1b57600080fd5b50519050611a47670de0b6b3a764000061062e610f6d611a41633b9aca00611063610f22565b856120b4565b91505090565b6000546001600160a01b03163314611a9a576040805162461bcd60e51b815260206004820181905260248201526000805160206129bf833981519152604482015290519081900360640190fd5b60105543601155565b6000546001600160a01b03163314611af0576040805162461bcd60e51b815260206004820181905260248201526000805160206129bf833981519152604482015290519081900360640190fd5b6001600160a01b038216611b0357600080fd5b8015611b385760038054600160a01b60ff60a01b19909116176001600160a01b0319166001600160a01b03841617905561098d565b6003805460ff60a01b19169055600280546001600160a01b0384166001600160a01b03199091161790555050565b60045460055460065460075460085460095486565b7f000000000000000000000000000000000000000000000000000000000000000081565b6000611bca6298968061062e633b9aca00611bc4611bbb611995565b60045490611ccc565b90612347565b60065490915081101561064b575060065490565b6000610f38620186a061062e6004600301547f00000000000000000000000000000000000000000000000000000000000000006001600160a01b03166318160ddd6040518163ffffffff1660e01b815260040160206040518083038186803b158015611c4957600080fd5b505afa158015611c5d573d6000803e3d6000fd5b505050506040513d6020811015611c7357600080fd5b505190611ccc565b600080611c936011544361207290919063ffffffff16565b600554601054919250611caa9161062e9084611ccc565b9150601054821115611cbc5760105491505b5090565b60115481565b60105481565b600082611cdb57506000610b80565b82820282848281611ce857fe5b0414611d255760405162461bcd60e51b815260040180806020018281038252602181526020018061299e6021913960400191505060405180910390fd5b9392505050565b6000611d2583836040518060400160405280601a81526020017f536166654d6174683a206469766973696f6e206279207a65726f000000000000815250612481565b600082611e1e577f00000000000000000000000000000000000000000000000000000000000000006001600160a01b031663a9059cbb85846040518363ffffffff1660e01b815260040180836001600160a01b0316815260200182815260200192505050602060405180830381600087803b158015611dec57600080fd5b505af1158015611e00573d6000803e3d6000fd5b505050506040513d6020811015611e1657600080fd5b5061206b9050565b600354600160a01b900460ff1615611f45576003546040805163095ea7b360e01b81526001600160a01b0392831660048201526024810185905290517f00000000000000000000000000000000000000000000000000000000000000009092169163095ea7b3916044808201926020929091908290030181600087803b158015611ea757600080fd5b505af1158015611ebb573d6000803e3d6000fd5b505050506040513d6020811015611ed157600080fd5b505060035460408051637acb775760e01b8152600481018590526001600160a01b03878116602483015291519190921691637acb775791604480830192600092919082900301818387803b158015611f2857600080fd5b505af1158015611f3c573d6000803e3d6000fd5b5050505061206b565b6002546040805163095ea7b360e01b81526001600160a01b0392831660048201526024810185905290517f00000000000000000000000000000000000000000000000000000000000000009092169163095ea7b3916044808201926020929091908290030181600087803b158015611fbc57600080fd5b505af1158015611fd0573d6000803e3d6000fd5b505050506040513d6020811015611fe657600080fd5b505060025460408051637acb775760e01b8152600481018590526001600160a01b03878116602483015291519190921691637acb77579160448083019260209291908290030181600087803b15801561203e57600080fd5b505af1158015612052573d6000803e3d6000fd5b505050506040513d602081101561206857600080fd5b50505b5092915050565b6000611d2583836040518060400160405280601e81526020017f536166654d6174683a207375627472616374696f6e206f766572666c6f770000815250612523565b6120bc61291d565b600082116120fb5760405162461bcd60e51b81526004018080602001828103825260268152602001806129786026913960400191505060405180910390fd5b826121155750604080516020810190915260008152610b80565b71ffffffffffffffffffffffffffffffffffff83116121bc57600082607085901b8161213d57fe5b0490506001600160e01b0381111561219c576040805162461bcd60e51b815260206004820152601e60248201527f4669786564506f696e743a3a6672616374696f6e3a206f766572666c6f770000604482015290519081900360640190fd5b6040518060200160405280826001600160e01b0316815250915050610b80565b60006121cd84600160701b8561257d565b90506001600160e01b0381111561219c576040805162461bcd60e51b815260206004820152601e60248201527f4669786564506f696e743a3a6672616374696f6e3a206f766572666c6f770000604482015290519081900360640190fd5b516612725dd1d243ab6001600160e01b039091160490565b611a9a610f2f611c7b565b600061226a6298968061062e633b9aca00611bc4611bbb611995565b600654909150811015612280575060065461064b565b6006541561064b57600060065590565b604080516001600160a01b0380861660248301528416604482015260648082018490528251808303909101815260849091019091526020810180516001600160e01b03166323b872dd60e01b1790526122ea90859061261d565b50505050565b604080516001600160a01b038416602482015260448082018490528251808303909101815260649091019091526020810180516001600160e01b031663a9059cbb60e01b17905261234290849061261d565b505050565b600082820183811015611d25576040805162461bcd60e51b815260206004820152601b60248201527f536166654d6174683a206164646974696f6e206f766572666c6f770000000000604482015290519081900360640190fd5b600d54600e546000916123b49190612347565b600b54909150158015906123c85750804310155b1561247e57600454600a5460ff161561240257600b546004546123ea91612347565b6004819055600c54116123fd576000600b555b612424565b600b5460045461241191612072565b6004819055600c5410612424576000600b555b43600e55600454600b54600a546040805185815260208101949094528381019290925260ff1615156060830152517fb923e581a0f83128e9e1d8297aa52b18d6744310476e0b54509c054cd7a93b2a9181900360800190a1505b50565b6000818361250d5760405162461bcd60e51b81526004018080602001828103825283818151815260200191508051906020019080838360005b838110156124d25781810151838201526020016124ba565b50505050905090810190601f1680156124ff5780820380516001836020036101000a031916815260200191505b509250505060405180910390fd5b50600083858161251957fe5b0495945050505050565b600081848411156125755760405162461bcd60e51b81526020600482018181528351602484015283519092839260449091019190850190808383600083156124d25781810151838201526020016124ba565b505050900390565b600080600061258c86866126ce565b915091506000848061259a57fe5b8688099050828111156125ae576001820391505b8083039250848210612607576040805162461bcd60e51b815260206004820152601a60248201527f46756c6c4d6174683a3a6d756c4469763a206f766572666c6f77000000000000604482015290519081900360640190fd5b6126128383876126fb565b979650505050505050565b6060612672826040518060400160405280602081526020017f5361666545524332303a206c6f772d6c6576656c2063616c6c206661696c6564815250856001600160a01b031661276b9092919063ffffffff16565b8051909150156123425780806020019051602081101561269157600080fd5b50516123425760405162461bcd60e51b815260040180806020018281038252602a815260200180612a26602a913960400191505060405180910390fd5b60008080600019848609905083850292508281039150828110156126f3576001820391505b509250929050565b6000818103821680838161270b57fe5b04925080858161271757fe5b04945080816000038161272657fe5b60028581038087028203028087028203028087028203028087028203028087028203028087028203029586029003909402930460010193909302939093010292915050565b606061277a8484600085612782565b949350505050565b606061278d856128ef565b6127de576040805162461bcd60e51b815260206004820152601d60248201527f416464726573733a2063616c6c20746f206e6f6e2d636f6e7472616374000000604482015290519081900360640190fd5b60006060866001600160a01b031685876040518082805190602001908083835b6020831061281d5780518252601f1990920191602091820191016127fe565b6001836020036101000a03801982511681845116808217855250505050505090500191505060006040518083038185875af1925050503d806000811461287f576040519150601f19603f3d011682016040523d82523d6000602084013e612884565b606091505b5091509150811561289857915061277a9050565b8051156128a85780518082602001fd5b60405162461bcd60e51b81526020600482018181528651602484015286518793919283926044019190850190808383600083156124d25781810151838201526020016124ba565b3b151590565b6040518060800160405280600081526020016000815260200160008152602001600081525090565b6040805160208101909152600081529056fe4f776e61626c653a206e6577206f776e657220697320746865207a65726f20616464726573734f776e61626c653a206d757374206265206e6577206f776e657220746f2070756c6c4669786564506f696e743a3a6672616374696f6e3a206469766973696f6e206279207a65726f536166654d6174683a206d756c7469706c69636174696f6e206f766572666c6f774f776e61626c653a2063616c6c6572206973206e6f7420746865206f776e6572536c697070616765206c696d69743a206d6f7265207468616e206d617820707269636556657374696e67206d757374206265206c6f6e676572207468616e20333620686f7572735361666545524332303a204552433230206f7065726174696f6e20646964206e6f742073756363656564a2646970667358221220e4d38f682eb018c16aa72cc3097501e677f7a2459cdb819153a640b1fedd99cc64736f6c63430007050033",
  "linkReferences": {},
  "deployedLinkReferences": {}
}